{
  "contractName": "VoltzToken",
  "abi": [
    {
      "inputs": [],
      "payable": false,
      "stateMutability": "nonpayable",
      "type": "constructor"
    },
    {
      "constant": true,
      "inputs": [],
      "name": "totalSupply",
      "outputs": [
        {
          "internalType": "uint256",
          "name": "",
          "type": "uint256"
        }
      ],
      "payable": false,
      "stateMutability": "view",
      "type": "function"
    }
  ],
  "bytecode": "0x6080604052348015600f57600080fd5b50620f42406000819055506084806100286000396000f3fe6080604052348015600f57600080fd5b506004361060285760003560e01c806318160ddd14602d575b600080fd5b60336049565b6040518082815260200191505060405180910390f35b6000548156fea265627a7a72315820cb9d371e7614a511bc04572f4104904bf5120c832e2731f1a11cbf1830e2e6fe64736f6c63430005100032",
  "source": "pragma solidity ^0.5.0;\r\n\r\ncontract VoltzToken{\r\n\r\n    uint256 public totalSupply;\r\n\r\n    //constructor\r\n    constructor() public{\r\n        totalSupply=1000000;\r\n    }\r\n\r\n    // set total number of token\r\n\r\n\r\n    // read the total number of token\r\n}",
  "sourcePath": "F:/blockchain/ico-irl/contracts/VoltzToken.sol",
  "compiler": {
    "name": "solc",
    "version": "0.5.16+commit.9c3226ce.Emscripten.clang"
  },
  "schemaVersion": "3.4.1",
  "updatedAt": "2021-06-19T15:28:13.095Z",
  "networkType": "ethereum",
  "devdoc": {
    "methods": {}
  },
  "userdoc": {
    "methods": {}
  }
}