{
  "contractName": "VoltzTokenSale",
  "abi": [
    {
      "inputs": [
        {
          "internalType": "contract VoltzToken",
          "name": "_tokenContract",
          "type": "address"
        },
        {
          "internalType": "uint256",
          "name": "_tokenPrice",
          "type": "uint256"
        }
      ],
      "payable": false,
      "stateMutability": "nonpayable",
      "type": "constructor"
    },
    {
      "anonymous": false,
      "inputs": [
        {
          "indexed": false,
          "internalType": "address",
          "name": "_buyer",
          "type": "address"
        },
        {
          "indexed": false,
          "internalType": "uint256",
          "name": "_amount",
          "type": "uint256"
        }
      ],
      "name": "Sell",
      "type": "event"
    },
    {
      "constant": true,
      "inputs": [],
      "name": "tokenContract",
      "outputs": [
        {
          "internalType": "contract VoltzToken",
          "name": "",
          "type": "address"
        }
      ],
      "payable": false,
      "stateMutability": "view",
      "type": "function"
    },
    {
      "constant": true,
      "inputs": [],
      "name": "tokenPrice",
      "outputs": [
        {
          "internalType": "uint256",
          "name": "",
          "type": "uint256"
        }
      ],
      "payable": false,
      "stateMutability": "view",
      "type": "function"
    },
    {
      "constant": true,
      "inputs": [],
      "name": "tokenSold",
      "outputs": [
        {
          "internalType": "uint256",
          "name": "",
          "type": "uint256"
        }
      ],
      "payable": false,
      "stateMutability": "view",
      "type": "function"
    },
    {
      "constant": false,
      "inputs": [
        {
          "internalType": "uint256",
          "name": "_numberOfToken",
          "type": "uint256"
        }
      ],
      "name": "buyToken",
      "outputs": [],
      "payable": true,
      "stateMutability": "payable",
      "type": "function"
    }
  ],
  "bytecode": "0x608060405234801561001057600080fd5b5060405161032e38038061032e8339818101604052604081101561003357600080fd5b810190808051906020019092919080519060200190929190505050336000806101000a81548173ffffffffffffffffffffffffffffffffffffffff021916908373ffffffffffffffffffffffffffffffffffffffff16021790555081600160006101000a81548173ffffffffffffffffffffffffffffffffffffffff021916908373ffffffffffffffffffffffffffffffffffffffff160217905550806002819055505050610247806100e76000396000f3fe60806040526004361061003f5760003560e01c80632d296bf114610044578063519ee19e1461007257806355a373d61461009d5780637ff9b596146100f4575b600080fd5b6100706004803603602081101561005a57600080fd5b810190808035906020019092919050505061011f565b005b34801561007e57600080fd5b506100876101b4565b6040518082815260200191505060405180910390f35b3480156100a957600080fd5b506100b26101ba565b604051808273ffffffffffffffffffffffffffffffffffffffff1673ffffffffffffffffffffffffffffffffffffffff16815260200191505060405180910390f35b34801561010057600080fd5b506101096101e0565b6040518082815260200191505060405180910390f35b61012b816002546101e6565b341461013657600080fd5b806003600082825401925050819055507f5e5e995ce3133561afceaa51a9a154d5db228cd7525d34df5185582c18d3df093382604051808373ffffffffffffffffffffffffffffffffffffffff1673ffffffffffffffffffffffffffffffffffffffff1681526020018281526020019250505060405180910390a150565b60035481565b600160009054906101000a900473ffffffffffffffffffffffffffffffffffffffff1681565b60025481565b600080821480610203575082828385029250828161020057fe5b04145b61020c57600080fd5b9291505056fea265627a7a72315820bc4528f28c48657562922b20ccab670fa76dc41f22f6dc4eeac50d4d984eaf8064736f6c63430005100032",
  "source": "pragma solidity ^0.5.0;\r\n\r\nimport \"./VoltzToken.sol\";\r\n\r\ncontract VoltzTokenSale{\r\n\r\n    address admin;\r\n    VoltzToken public tokenContract;\r\n    uint256 public tokenPrice;\r\n    uint256 public tokenSold;\r\n\r\n    event Sell(address _buyer,uint256 _amount);\r\n\r\n    constructor(VoltzToken _tokenContract,uint _tokenPrice) public{\r\n        //assign admin\r\n        admin = msg.sender;\r\n        //add token Contract\r\n        tokenContract = _tokenContract;\r\n        //assign Token Price\r\n        tokenPrice = _tokenPrice;\r\n    }\r\n\r\n    //safe multiply function\r\n    function multiply(uint x,uint y) internal pure returns(uint z){\r\n        require(y==0 || (z=x*y)/y==x);\r\n    }\r\n\r\n    function buyToken(uint256 _numberOfToken) public payable {\r\n        require(msg.value == multiply(_numberOfToken,tokenPrice));\r\n        // require contract has enough tokens\r\n        // require that a transfer is succesful\r\n        tokenSold += _numberOfToken; \r\n        emit Sell(msg.sender,_numberOfToken);\r\n    }\r\n\r\n}",
  "sourcePath": "F:/blockchain/ico-irl/contracts/VoltzTokenSale.sol",
  "compiler": {
    "name": "solc",
    "version": "0.5.16+commit.9c3226ce.Emscripten.clang"
  },
  "schemaVersion": "3.4.1",
  "updatedAt": "2021-06-21T09:30:53.136Z",
  "networkType": "ethereum",
  "devdoc": {
    "methods": {}
  },
  "userdoc": {
    "methods": {}
  }
}